:020000040800F2
:1000000098040020C1010008EB140008C113000887
:10001000E9140008850900086B19000800000000B9
:10002000000000000000000000000000EF140008C5
:100030008709000800000000ED140008F114000812
:10004000DB010008DB010008DB010008DB01000820
:10005000DB010008DB010008DB010008DB01000810
:10006000DB010008DB010008DB010008DB01000800
:10007000DB010008DB010008DB010008DB010008F0
:10008000DB010008DB01000851080008DB01000863
:10009000DB010008DB010008DB010008DB010008D0
:1000A000DB010008DB010008DB010008DB010008C0
:1000B000DB010008DB010008DB010008DB010008B0
:1000C000DB010008DB010008DB010008DB010008A0
:1000D000DB010008DB010008DB010008DB01000890
:1000E000DB010008DB010008DB010008DB01000880
:1000F000DB010008DB010008DB010008DB01000870
:10010000DB010008DB010008DB010008DB0100085F
:100110008D150008DB010008DB010008DB01000889
:10012000DB010008DB010008DB010008DB0100083F
:10013000DB010008DB010008DB010008DB0100082F
:10014000DB010008DB010008DB010008DB0100081F
:10015000DB010008DB010008DB010008DB0100080F
:10016000DB010008DB010008DB010008DB010008FF
:10017000DB010008DB010008DB01000800000000D3
:10018000DB010008DB010008DB010008DB010008DF
:10019000DB010008DB010008DB010008DB010008CF
:1001A000DB010008DB010008DB010008DFF80CD0F0
:1001B00000F02AFB00480047912200089804002024
:1001C0000648804706480047FEE7FEE7FEE7FEE7F1
:1001D000FEE7FEE7FEE7FEE7FEE7FEE7391500086B
:1001E000AD0100082DE9F05F0546002092469B46D0
:1001F00088460646814640241BE02846414647463D
:10020000224600F017F953465A46C01A914110D3BE
:1002100011461846224600F0FEF82D1A67EB010839
:100220004F4622460120002100F0F5F817EB0009A7
:100230004E41201EA4F10104DFDC484631462A4627
:100240004346BDE8F09F40EA01039B0703D009E065
:1002500008C9121F08C0042AFAD203E011F8013BB2
:1002600000F8013B521EF9D27047D2B201E000F80B
:10027000012B491EFBD270470022F6E710B513464A
:100280000A4604461946FFF7F0FF204610BD2DE947
:10029000FE4F81EA030404F0004421F00041009481
:1002A0004FF0000B23F0004350EA01045ED052EA05
:1002B00003045BD0C3F30A54C1F30A552C44A4F2DF
:1002C000F3340194A0FB0254C1F3130141F48011F3
:1002D000C3F3130343F4801301FB024400FB034EFA
:1002E000840A970A44EA815447EA8357A4FB0768C3
:1002F00002958D0A05FB07854FEA932C04FB0C54ED
:100300002705029D4FEA065847EA1637B5EB080560
:100310006EEB070C870E920E47EA811742EA8312B2
:10032000A7FB0201B6EB0B0164EB00042B0D43EAC3
:100330000C335E1844EB1C50DA465146E7FB0201D1
:10034000C5F313044FEA0B3343EA14534FEA043264
:10035000019C43EA0603A4F10C040294009CCDE93D
:1003600000B400F0BDF803B0BDE8F08F00200146F6
:10037000F9E70EB540F2334102910021CDE90011B9
:100380000A460B4600F0ACF803B000BD00F0004296
:1003900030F000400AD0C10D01F56071C0F31600C5
:1003A00042EA0151C208400711437047002001464C
:1003B000704701F0004330B421F0004150EA0102DF
:1003C00006D00A0DA2F56072C1F31301002A02DC07
:1003D00030BC00207047440F44EAC104C100E0185B
:1003E00030BC00EBC25000F035B830B50B460146CA
:1003F00000202022012409E021FA02F59D4205D3C4
:1004000003FA02F5491B04FA02F52844151EA2F16D
:100410000102F1DC30BD202A04DB203A00FA02F1AF
:10042000002070479140C2F1200320FA03F31943E2
:1004300090407047202A04DB203A21FA02F0002184
:10044000704721FA02F3D040C2F1200291400843E4
:10045000194670470029A8BF7047401C490008BFD3
:1004600020F00100704710B4B0FA80FC00FA0CF0E4
:1004700050EA010404BF10BC704749B1CCF120041C
:1004800021FA04F411FA0CF118BF012121430843A9
:10049000A3EB0C01CB1D4FEA00614FEA102042BFD5
:1004A000002010BC704700EBC35010440029A4BFCB
:1004B00010BC7047401C490008BF20F0010010BC70
:1004C000704710B5141E73F1000408DA401C41F1A6
:1004D000000192185B411A4301D120F0010010BDC8
:1004E0002DE9F04D92469B4611B1B1FA81F202E03E
:1004F000B0FA80F220329046FFF78DFF04460F4697
:1005000040EA0A0041EA0B0153465A46084313D019
:10051000114653EA010019D0C8F140025046FFF7D6
:1005200089FF05460E46504659464246FFF773FF7F
:10053000084305D0012004E020463946BDE8F08D8F
:100540000020054346EAE0762C4337430A986305CA
:10055000E40AA0EB08000022FD0A44EA47540A30EE
:1005600002D500200146E9E7010510196941DDE9DE
:10057000084500196941BDE8F04DA2E72DE9FE4F9D
:10058000804681EA0300C00F0C46009021F0004134
:1005900023F00045B8EB0200A94105D240462146B0
:1005A00090461C460B46024623F00040104347D0BD
:1005B000270DC7F30A00C3F30A510290401A0190B5
:1005C00040286BDAC3F3130040F4801B0098924676
:1005D00020B10023D2EB030A63EB0B0B01985946C1
:1005E000C0F140025046FFF716FF06460D46504642
:1005F0005946019A00F01AF910EB080061410024F5
:1006000087EA115284EAE7731A4340D0009A62B332
:10061000019A012A4FEA075215DC001B61EB020127
:100620004FF0004202EA0752CDE90042001C41F5BA
:10063000801132462B46FFF753FF03B0BDE8F08F21
:1006400040462146F9E7001B61EB0201001C41F521
:10065000801300185B412018A2F5001747EB030137
:1006600040EAD570B6196D4111E06D084FEA3606C3
:1006700045EAC0754FEA0752001B61EB0201001CFE
:1006800041F5801149084FEA3000001951413246C6
:100690002B4603B0BDE8F04FFFF713BF00980122CF
:1006A00040000023D0EB020263EBE0730098214688
:1006B0004FEAE074B8EB000061EB0401E9E783F076
:1006C00000435BE781F0004158E72DE9F04D81EAF6
:1006D000030404F0004B21F0004514464FF0000ADB
:1006E00023F0004150EA050220D054EA01021DD057
:1006F000C5F30A570246C5F31303C1F31300C1F350
:100700000A5640F4801543F48013A7EB0608101B2B
:10071000D64608F2FD3873EB050002D308F1010854
:1007200001E092185B41B8F1000F03DA00200146A6
:10073000BDE8F08D00204FF48011064684460EE09F
:10074000171B73EB050705D3121B63EB0503064369
:100750004CEA010C49084FEA300092185B4150EA1C
:100760000107EDD152EA030012D082EA040083EAC5
:100770000501084305D0101BAB4106D2012200231E
:1007800006E000224FF0004302E06FF00102531038
:100790001AEB06004CEB085110EB0A0041EB0B0181
:1007A000BDE8F04DFFF78DBEC1F30A52C1F313014E
:1007B00040F2FF3341F480119A4202DA00200146F0
:1007C000704740F233439A42A2F2334202DC524273
:1007D000FFF730BEFFF71FBE30B5041E71F10004F5
:1007E00004DB4FF00044404264EB0101141E73F13E
:1007F000000405DB1C464FF00043524263EB040348
:10080000994208BF904230BD064C074D06E0E068B3
:1008100040F0010394E8070098471034AC42F6D347
:10082000FFF7C8FC0826000828260008202A06DB57
:10083000CB17203A41FA02F043EAE07306E041FAAE
:1008400002F3D040C2F1200291400843194670479C
:10085000014800F09FB8000050000020464910B544
:100860004A6822F440324A604A6843681A434A6040
:1008700001684A6822F480724A6001684A68036924
:1008800042EA03224A6001684A6822F040724A60E4
:1008900001684A6883681A434A6001688A6822F4DA
:1008A00000628A6001688A68C3681A438A60816A44
:1008B0006FF07062D14201688A6822F070628A60CB
:1008C00001688A680CD0836A1A438A6001688A6862
:1008D00022F040528A6001688A68C36A1A4301E0C4
:1008E00022F040528A6001688A6822F002028A601F
:1008F00001688A68037E42EA43028A6090F8201009
:10090000002901684A680FD042F400624A60016819
:100910004A6822F460424A6001684A68174C436A98
:1009200004EB43331A4301E022F400624A60016899
:10093000CA6A22F47002CA620168CA6A838B104CC8
:1009400004EB03531A43CA6201688A6822F40072F6
:100950008A6001688A6890F8303042EA43228A60EF
:1009600001688A6822F480628A6001688A68406946
:1009700042EA8020886010BD0023014000E0FFFFB4
:100980000000F0FFFEE7704770477047704700684F
:10099000C06C704770B50446006801684268C1F3D6
:1009A0004001C2F3401251B34AB3216CC90603D4CB
:1009B000216C41F400712164816811F0405F17D10E
:1009C000217EA9B9C16A11F4700F02D0816849056E
:1009D0000ED4416821F020014160206C20F4807029
:1009E0002064206CC00403D4206C40F0010020641B
:1009F0002046FFF7CAFF21686FF0120008602068E8
:100A000001684268C1F38001C2F3C01289B382B3A6
:100A1000216CC90603D4216C41F400512164816822
:100A200011F4401F1ED1816B11F4401F02D0816868
:100A3000490517D44168490514D4816811F0405F15
:100A400010D1217E71B9416821F080014160206C94
:100A500020F480502064206CC00503D4206C40F04A
:100A6000010020642046FFF78FFF21686FF00C0023
:100A7000086020680168426811F0010FC2F380121B
:100A80000ED06AB10068C0070AD0206C40F48030F4
:100A90002064204600F046F821686FF001000860ED
:100AA000206801684268C1F34011C2F380620029E6
:100AB0000DD0002A0BD0616C41F0020161646FF02F
:100AC000200505602046FFF761FF2068056070BDC6
:100AD00070B504004FF0000503D0206C002610B163
:100AE00007E0012070BD204600F01EF8666484F81F
:100AF0003C60206CC00610D4206C20F4885040F07C
:100B0000020020642046FFF7A9FE6664206C20F0F6
:100B1000020040F00100206400E0012584F83C6000
:100B2000284670BD7047000010B586B004461421F9
:100B30006846FFF7A1FB15492068884224D1144874
:100B40000021026842F480720260006800F4807044
:100B500005900F481438026842F0010202600068F4
:100B600000F001000590202000900320CDE9010154
:100B70006946084800F01AF900221146122000F0D8
:100B800077FA122000F066FA06B010BD002001408E
:100B900044380240000002402DE9F041044600685C
:100BA0000D4681684FF0000749050BD58068C005E8
:100BB00008D5206C40F02000206484F83C700120AF
:100BC000BDE8F08100F0E4F906460FE0681C0DD0A6
:100BD00025B100F0DDF9801BA84207D9206C40F058
:100BE0000400206484F83C700320E9E72068006872
:100BF0008007EBD521686FF012000860206C40F48C
:100C0000007020642068816811F0405F13D1217E5C
:100C100089B9C16A11F4700F02D0806840050AD406
:100C2000206C20F480702064206CC00403D4206CFD
:100C300040F0010020640020C2E7000018B5002148
:100C4000009190F83C20012A07D0012280F83C2036
:100C500002689368DB0702D011E0022018BD936898
:100C600043F0010393602A4A2A4B1268B2FBF3F265
:100C700002EB420200E0521E0092002AFBD1026801
:100C80009368DB0741D0036C40F20164A34343F453
:100C90008073036453685B0505D5036C23F400532C
:100CA00043F480530364036CDB0404D5436C23F0EA
:100CB0000603436400E0416480F83C1016496FF07D
:100CC0002203136049680068CA06144906D08842A6
:100CD0001BD1816811F0405F13D016E08842F8D034
:100CE0000F4A904203D1D1F80423D206F1D00D4A25
:100CF00090420AD1D1F8041301F01F011029E8D362
:100D000003E0816841F080418160002018BD00004F
:100D10000000002040420F0000230140002001405D
:100D2000002101400022014090F83C1001290CD024
:100D3000012180F83C1001688A6822F001028A6073
:100D400001688968C90702D007E002207047016C7A
:100D500021F4885141F001010164002180F83C1028
:100D60000846704790F83510022903D0802141656C
:100D700001207047052180F835100068016821F0D6
:100D8000010101600020704770B5044600F000F9D1
:100D90000546601C02D004480078044400F0F8F8CE
:100DA000401BA042FAD370BD040000202DE9F84F8B
:100DB000DFF890B100224FF001084FF0030A4FF026
:100DC0000F090BF1040E00BF0B6808FA02F4234070
:100DD000A3426ED14D68022D01D0122D0ED1D5083F
:100DE00000EB850CDCF820505607F70E09FA07F6E1
:100DF000B5430E69BE402E43CCF82060066855000E
:100E00000F790AFA05FC07F0030726EA0C06AF4043
:100E1000374307604E68012E05D0022E03D0112EF5
:100E200001D0122E0ED18768CE6827EA0C07AE409B
:100E30003E4386604668A6430C79C4F30014944090
:100E400034434460C4688E6824EA0C04AE402643F0
:100E5000C6604C68E4006FD53B4C256845F480457E
:100E60002560246822F0030504F480440094374C84
:100E70002E19D6F8084895072F0F09FA07F5AC4345
:100E8000334DA84201D100252EE0324DA84201D1B8
:100E9000012529E0304DA84201D1022524E02F4D43
:100EA000A84201D103251FE02D4DA84202D10425FF
:100EB0001AE041E02B4DA84201D1052514E02A4D4E
:100EC000A84201D106250FE0284DA84201D10725EF
:100ED0000AE0274DA84201D1082505E0254DA8428A
:100EE00001D1092500E00A25BD402543C6F8085870
:100EF000DBF800405D464E689C43F60300D51C437A
:100F00002C60DEF8004075464E689C43B60300D561
:100F10001C432C600B4D08352C684E689C43F60230
:100F200000D51C432C60074D0C352C684E689C4343
:100F3000B60200D51C432C60521C102AFFF444AFAB
:100F4000BDE8F88F003C01404438024000300140C9
:100F5000000002400004024000080240000C024071
:100F6000001002400014024000180240001C024021
:100F70000020024000240240426931EA020200D10E
:100F80000904816170470AB1816170470904FBE778
:100F90000148806870470000040000200248816812
:100FA0000278114481607047040000200B4810B59E
:100FB000016841F400710160016841F480610160E1
:100FC000016841F480710160032000F071F8002095
:100FD00000F006F800F024F8002010BD003C0240AC
:100FE00070B50D4D04464FF47A712878B1FBF0F0DE
:100FF0000A490968B1FBF0F000F08CF848B9102CF0
:1010000007D200222146501E00F032F800206C600A
:1010100070BD012070BD0000040000200000002011
:101020000B4882B0016841F480410160006800F41F
:10103000804000900648001F016841F08051016027
:10104000006800F080500090072002B000F030B837
:1010500044380240002809DB00F01F0201219140C2
:101060004009800000F1E020C0F800117047000046
:10107000F0B40E4B1B680C46C3F30223C3F1070503
:10108000042D00D90425191D072901D2002300E0F1
:10109000DB1E012606FA05F1491E214099409E40BB
:1010A000761E16403143F0BC00F074BC0CED00E03D
:1010B000064900F0070208684FF6FF03184040EAAF
:1010C0000220034A10430860704700000CED00E066
:1010D0000000FA050448054900680968044AC1F39C
:1010E0008221515CC840704700000020083802404F
:1010F000002600080448054900680968044AC1F34D
:101100004231515CC840704700000020083802405E
:101110000026000810B5401EB0F1807F01D30120E9
:1011200010BD4FF0E02460610F21601700F032FC29
:101130000020A06107202061002010BD7047000042
:1011400070B5026804461068D168536910F00F0F3B
:1011500050D003F0010501F4907635435DD0C2070D
:1011600005D0CA0503D5E26B42F00102E2634207F3
:1011700005D5DA0703D0E26B42F00202E263820790
:1011800005D5DA0703D0E26B42F00402E2630207FE
:1011900005D5DA0703D0E26B42F00802E263E26BA6
:1011A000002A33D0800604D5880602D5204600F0F8
:1011B00009FA20684069E16BC0F38010090700D488
:1011C00028B3204600F0F0F92068416949061AD595
:1011D000416921F040014161606BA0B11B4901658B
:1011E000606BFFF7BFFD002810D0606B016DBDE89C
:1011F00070400847830610D58B060ED52046BDE803
:10120000704000F0DFB92046FFF798FF70BD204620
:10121000FFF794FF0020E06370BD030606D50B06C0
:1012200004D52046BDE8704000F06EBB4006F3D503
:101230004806F1D5D168204621F04001D160202137
:1012400084F8391000F0BBF870BD00009915000853
:1012500070B5040004D094F83900002510B106E000
:10126000012070BD84F83850204600F023F8242077
:1012700084F839002068C16821F40051C16020461B
:1012800000F0ECF92068016921F4904101612068C7
:10129000416921F02A0141612068C16841F400518F
:1012A000C160E563202084F8390084F83A0000200A
:1012B00070BD000010B586B0044614216846FEF7E4
:1012C000DBFF17492068884227D11648016841F49E
:1012D00000210160006800F40020059011481038DA
:1012E000016841F0010101600068022100F0010085
:1012F00005900320CDE900010121CDE9021008206D
:10130000049069460848FFF751FD00221146342039
:10131000FFF7AEFE3420FFF79DFE06B010BD0000C3
:10132000004C0040403802400000024090F83A3043
:10133000202B22D1F9B1F2B190F83830012B1CD01A
:1013400081628285C2850021C163222280F83A2011
:1013500080F838100168CA6842F48072CA60016877
:101360004A6942F001024A610068C16841F0200107
:10137000C16000207047012070470220704770470D
:1013800090F83930202B18D1A9B1A2B190F838309B
:10139000012B12D001628284C2840021C163212208
:1013A00080F8392080F838100068C16841F0800169
:1013B000C1600020704701207047022070477047CD
:1013C000FEE700000FB4002010B50D4903914FF463
:1013D0008031CDE9041007908DF824008DF82C00A1
:1013E0000849CDE90D1001210A9106908DF83C00C5
:1013F00003A80891FFF76CFB10BC5DF814FB00001C
:10140000002001400100000F70B586B0142168462D
:10141000FEF732FF16480024016841F080010160A8
:10142000016801F080010591016841F0010101604E
:10143000016801F001010591016841F0400101607E
:1014400000680C4E00F040004FF4C04505900022AB
:1014500029463046FFF797FD01200095CDE90104AC
:10146000694630460394FFF7A1FC06B070BD00004A
:1014700030380240001802400FB40C2110B5044669
:10148000184803904FF4E130049000200590069036
:10149000CDE9070109900A9003A8FFF7D9FE26229B
:1014A00003A92046FEF7CFFEBDF83200E0840D9878
:1014B000A062BDF83800A085BDF83A00E085092299
:1014C0000FA904F13000FEF7BEFE9DF8450084F838
:1014D00039009DF8460084F83A001298E06310BC89
:1014E0005DF814FB004C0040FEE770477047704702
:1014F000FFF754BD00B593B030216846FEF7BCFE3F
:1015000014210CA8FEF7B8FE0948016841F080518B
:101510000160006800F0805011900648016841F4B5
:1015200040410160006800F44040119013B000BDDC
:1015300040380240007000401048016841F47001DA
:1015400001600F48016841F0010101600C4A00216F
:101550000832116002680B4B1A400260031D0A4AF0
:101560001A60026822F48022026005480C30016093
:1015700002495806803908607047000088ED00E095
:1015800000380240FFFFF6FE103000240148FFF74C
:10159000D7BD00001000002010B5806B0021C18570
:1015A000C184FFF7CBFD10BD0168CA6822F49072B8
:1015B000CA6001684A6922F001024A61202180F86C
:1015C0003A10704710B590F83A10222901D0022045
:1015D00010BD8168B1F5805F11D0016900290168F3
:1015E0001FD0496801F07F03816A4A1C82620B7038
:1015F000C18D491E0904090CC18518D02BE0026970
:10160000816A002A0268526805D0D2B20A80816AD3
:10161000491C8162ECE7C2F308020A80816A891CD6
:10162000F7E74A68816A4B1C83620A70E0E7016849
:10163000CA6822F02002CA600168CA6822F4807277
:10164000CA6001684A6922F001024A61202180F8DB
:101650003A10FFF794FE002010BD00002DE9F04184
:10166000044600680169E26821F4405111430161B8
:101670002169A068E269084361691143226808434F
:10168000D16849F20C6399430143D16020684169F4
:10169000A26921F4407111434161E2696425B2F508
:1016A000004F9748974922684FF032083FD08A424E
:1016B00001D082427CD1FFF71DFD00EBC00101EBA0
:1016C000001061688900B0FBF1F6FFF713FD00EB35
:1016D000C00101EB001061688900B0FBF1F0B0FBC4
:1016E000F5F06FF01801484306EB800108EB01109C
:1016F000B0FBF5F000F0F006FFF7FCFC00EBC001DA
:1017000001EB001061688900B0FBF1F0B0FBF5F06F
:1017100006EB0016FFF7EEFC00EBC00101EB00103A
:1017200061688900B0FBF1F7FFF7E4FCD2E08A4280
:1017300001D082423DD1FFF7DDFC00EBC00101EB9F
:10174000001061684900B0FBF1F0B0FBF5F0060154
:10175000FFF7D0FC00EBC00101EB0010616849000D
:10176000B0FBF1F7FFF7C6FC00EBC00101EB001086
:1017700061684900B0FBF1F0B0FBF5F06FF01801C3
:10178000484307EB800108EBC100B0FBF5F000F027
:10179000F80006EB4006FFF7ADFC00EBC00101EBE3
:1017A000001061684900B0FBF1F7FFF7A3FC3CE0D3
:1017B00055E0FFF78FFC00EBC00101EB0010616802
:1017C0004900B0FBF1F0B0FBF5F00601FFF782FC39
:1017D00000EBC00101EB001061684900B0FBF1F7BC
:1017E000FFF778FC00EBC00101EB001061684900D5
:1017F000B0FBF1F0B0FBF5F06FF01801484307EBD8
:10180000800108EBC100B0FBF5F000F0F80006EB3A
:101810004006FFF75FFC00EBC00101EB00106168C0
:101820004900B0FBF1F7FFF755FC00EBC00101EBFD
:10183000001061684900B0FBF1F0B0FBF5F06FF00B
:101840001801484307EB800108EBC100B0FBF5F03D
:1018500000F00700216830448860BDE8F081FFF7A0
:1018600039FC00EBC00101EB001061688900B0FB9E
:10187000F1F6FFF72FFC00EBC00101EB00106168EF
:101880008900B0FBF1F0B0FBF5F06FF018014843B0
:1018900006EB800108EB0110B0FBF5F000F0F0065C
:1018A000FFF718FC00EBC00101EB00106168890034
:1018B000B0FBF1F0B0FBF5F006EB0016FFF70AFC09
:1018C00000EBC00101EB001061688900B0FBF1F78B
:1018D000FFF700FC00EBC00101EB0010616889001C
:1018E000B0FBF1F0B0FBF5F06FF01801484307EBE7
:1018F000800108EB0110B0FBF5F000F00F00A9E744
:10190000001401400010014090F83910212901D045
:10191000022070478168B1F5805F016A0BD04A1CD4
:101920000262026809785160C18C491E0904090CE1
:10193000C1840ED017E009880268C1F30801516024
:1019400001690029016A02D0491C0162ECE7891C87
:10195000FBE70168CA6822F08002CA600068C168BB
:1019600041F04001C16000207047FEE70FB4084B12
:1019700010B504A902AA039800F0EEF8044602A9E3
:10198000002000F080FC204610BC5DF814FB000035
:10199000872200080907090E002804DB00F1E02077
:1019A00080F80014704700F00F0000F1E02080F88C
:1019B000141D704702E008C8121F08C1002AFAD19E
:1019C00070477047002001E001C1121F002AFBD1BF
:1019D000704700002DE9FF5F82B00021DDE904308F
:1019E000020DDDF840B0034318D044F61050A2F2C7
:1019F000FF3242431514119801281FD0A5EB0B00AC
:101A0000401C5FEA000A4FF000064E4FDFF83891A5
:101A1000B046504615D5CAF1000413E011980124D0
:101A20004AA3012801D16FEA0B010298119AC0E97B
:101A30000031C0E9024206B0BDE8F09FCBF10000E2
:101A4000DFE704460021404A491842EB0450CDE943
:101A5000001012E0E00707D032463B4640464946B8
:101A6000FEF715FC8046894632463B46104619462D
:101A7000FEF70DFC06460F466410002CEAD1DDE9A6
:101A80000401DDE90023BAF1000F06DAFEF7FFFBDF
:101A900042464B46FEF7FBFB05E0FEF716FE4246CC
:101AA0004B46FEF712FE04460E460022284BFEF778
:101AB00093FE03D84FF0FF30014607E00022254B8C
:101AC00020463146FEF75AFDFEF76EFE102409E06F
:101AD000002C0ADB0A220023FEF784FB039B303232
:101AE0001A55641E50EA0102F2D1641C039AC4F133
:101AF00011031444119A012A03D0012208430DD185
:101B00000AE0084304D000204FF0110B119072E757
:101B1000A3EB0B056D1E0DE05B4504DD4FF00002ED
:101B200005F1010504E003DA4FF00002A5F101051B
:101B3000002AECD002981199C0E90231C0E90045B1
:101B400079E70000000014400000F03F3000000082
:101B50000000F0430000E03F2DE9FF4F95B09B46A9
:101B60008946064600250FE2252877D1002427461E
:101B7000F84A0121059400E0044316F8013F203B98
:101B800001FA03F01042F7D130782A2811D06FF013
:101B90002F033078A0F13002092A16D8059A44F0B4
:101BA000020402EB820203EB42021044761C059011
:101BB000EFE759F8042B0592002A03DA504244F467
:101BC0000054059044F00204761C30782E2816D17B
:101BD00016F8010F44F004042A280DD06FF02F02EC
:101BE0003078A0F13003092B09D807EB870302EB0B
:101BF0004303C718761CF3E759F8047B761C30784A
:101C00006C280FD006DC4C2817D068280DD06A2825
:101C100014D104E0742810D07A280FD10DE044F4D8
:101C200000140AE044F4801401E044F44014727893
:101C3000824202D104F58014761C761C3078662826
:101C40000BD013DC582877D009DC002875D0452844
:101C5000F6D04628F4D047281AD19DE118E0632831
:101C600035D0642879D0652812D195E1702873D0D9
:101C700008DC6728F1D069286FD06E280DD06F2856
:101C800006D1B5E073282CD0752875D0782874D08B
:101C90005A46179990476D1C75E1C4F3025002280B
:101CA00009D003280DD0D9F8001004280DD00D60FC
:101CB00009F1040967E1D9F80010EA17C1E90052F7
:101CC000F6E7D9F800100D80F2E70D70F0E719F88B
:101CD000041B8DF8001000208DF80100EA46012059
:101CE00003E059F804AB4FF0FF3061074FF00001FB
:101CF00002D40DE008F101018846B9420FDA8045AF
:101D0000F8DB1AF808100029F4D108E008F1010105
:101D100088468142FADB1AF808100029F6D10598A6
:101D20005B46A0EB080721463846179A00F094FA64
:101D3000284400EB080507E04DE029E10DE01AF822
:101D4000010B5A4617999047B8F10108F7D25B4644
:101D500021463846179A13E142E00A220092C4F362
:101D600002524FF0000A022A08D059F804CB032A85
:101D70004FEAEC710AD00DE029E02AE009F10701F1
:101D800021F00702F2E802C1914609E00FFA8CFC4B
:101D90004FEAEC71042A03D14FFA8CFC4FEAEC7144
:101DA000002907DA0A460021DCF1000C61EB020190
:101DB0002D2202E0220504D52B228DF804200122D9
:101DC00003E0E20701D02022F7E7904659E00A211C
:101DD00002E010220DE010214FF0000A00910BE00C
:101DE00010224FF0000A44F004040827009203E098
:101DF00008224FF0000A0092C4F30252022A05D0D2
:101E000059F804CB0021032A08D009E009F10701A1
:101E100021F00702F2E802C1914605E01FFA8CFCAE
:101E2000042A01D10CF0FF0C4FF00008220728D53E
:101E3000702806D0009B83F0100353EA0A0305D0F4
:101E40000EE040228DF80420012208E05CEA010245
:101E500006D030228DF804208DF80500022290462D
:101E6000009B83F0080353EA0A030AD15CEA0102EB
:101E700001D1620705D530228DF804204FF001080A
:101E80007F1E582804D034A003900EA802900DE0C5
:101E900036A0F9E753466046009AFEF7A3F9844658
:101EA0000398825C0298401E029002705CEA010076
:101EB000F0D1029806A9081A00F1200A600702D59D
:101EC00024F4803400E00127574502DDA7EB0A0027
:101ED00000E0002000EB0A01009005984144401A00
:101EE0000590E00306D45B462146179A059800F05A
:101EF000B3F90544002706E001A85A46C05D1799CA
:101F000090476D1C7F1C4745F6DBE0030CD55B4614
:101F10002146179A059800F09FF9054404E0302007
:101F20005A46179990476D1C0099481E0090002949
:101F3000F5DC08E0029802995A460078491C0291A3
:101F4000179990476D1CBAF10001AAF1010AF1DC62
:101F500065E100000928010030313233343536376D
:101F600038396162636465660000000030313233E5
:101F70003435363738394142434445460000000085
:101F800000F058F90544761C307800287FF4ECAD59
:101F900019B02846BDE8F08F620700D4062709F182
:101FA000070222F0070CFCE80223E14603F0004898
:101FB0005FEA080C02D00FF2702C0DE05FEA045CBF
:101FC00002D50FF2682C07E05FEAC47C02D00FF262
:101FD000602C01E0AFF2700C4FF0FF3823F00043AB
:101FE000CDF850C065280CD006DC452809D046281D
:101FF0001DD047283DD13DE0662818D067287ED106
:1020000038E00021112F01DB112000E0781CCDE920
:10201000000106A90EA8FFF7DDFCDDE90F010E9A0D
:1020200003910021009207F1010A04914DE04FF065
:1020300000400097CDE9011006A90EA8FFF7CAFCE1
:10204000DDE90F0203920E9B11990022DDF80CA02E
:102050000093049211B9791C00EB010AB7EB0A0056
:1020600004D4C0F1FF3007F1010A0490AAEB070085
:10207000019044E0012F00DA01270021112F01DD3A
:10208000112000E03846CDE9000106A90EA8FFF7AF
:10209000A1FCDDE90F010E9A039100210491009249
:1020A000BA4621070CD40399514500DA8A46BAF1A1
:1020B000010F05DD009AAAF10101515C302908D019
:1020C000B84202DA10F1040F06DA0121CDE901105D
:1020D00015E0AAF10101E9E7002805DC04990144B3
:1020E0000491AAEB000102E0411C514500DD8A4643
:1020F0000499401A401C01904FF0004002902007C4
:1021000004D40198504501DBCDF8048000208DF8FF
:102110004F0002980DF14F07B0F1004F25D02B2052
:102120000E9002984FF0020800280CDA404202900C
:102130002D200E9007E00A210298FEF756F9303163
:10214000029007F8011DB8F10001A8F10108F2DCC6
:1021500002980028EFD1791E0E980870307800F0B0
:10216000200040F0450007F8020D12A8C01B00F146
:1021700007081498007800B1012000EB0A010198CB
:1021800001EBE07105984144401A401E0590E003C0
:1021900006D45B462146179A059800F05DF8054481
:1021A0001498007818B15A46179990476D1CE003AF
:1021B00024D55B462146179A059800F04DF8054452
:1021C0001CE00498002807DBDDE90301884203DDF9
:1021D0000098405C179901E0179930205A469047C3
:1021E000049805F10105401C04900198401E0190DF
:1021F00004D12E205A46179990476D1CBAF1000160
:10220000AAF1010ADDDC05E017F8010B5A4617991F
:1022100090476D1CB8F10001A8F10108F4DC5B46A1
:102220002146179A0598ABE62D0000002B00000010
:10223000200000002DE9F041044600251E46174607
:10224000880404D405E039462020B0476D1C641E84
:10225000F9D52846BDE8F0812DE9F0410446002576
:102260001E469046C80301D5302700E02027880489
:1022700004D505E041463846B0476D1C641EF9D5CB
:102280002846BDE8F0810A68531C0B601070704747
:102290002DED048BB4B0FEF789FEFFF72BF9FFF7A5
:1022A000B3F82622A7490DA8FDF7CDFFA54CE08C79
:1022B000ADF85A0054F8280F1790A088ADF86000C8
:1022C000E088ADF862009F49092230310E4619A816
:1022D000FDF7B9FF607C8DF86D00A07C8DF86E0075
:1022E00060691C90342210A96846FDF7ACFF0DA868
:1022F00090E80E001DA8FFF7BFF81DAD2622294665
:102300009048FDF7A0FFBDF89A0024F8020C27982A
:102310002060BDF8A000A080BDF8A200E0800922E6
:1023200005F130013046FDF78EFF9DF8AD00607479
:102330009DF8AE00A0742C9860618249342240312F
:102340000FA8FDF780FF7F484030416B1C91216D45
:10235000626DCDE91D12016C1F91406C20903C22F2
:1023600012A96846FDF76FFF0FA890E80E0021A89C
:10237000FFF728F8744D4FF480412846FEF7FCFD26
:102380009FED728B9FED739B342274A101A8FDF722
:102390005AFF7FA0322204787EA001A900681E9017
:1023A0006848FEF7EDFF6420FEF7EEFC0122694667
:1023B0006448FEF7BBFF6420FEF7E6FC0122694695
:1023C0006048FEF7DDFF6420FEF7DEFC03221EA955
:1023D0005C48FEF7D5FF6420FEF7D6FC9DF80000B0
:1023E000E1B288427DD140226BA10EA8FDF72BFF00
:1023F00079A0402204780EA95248FEF7C1FF64205C
:10240000FEF7C2FC012269464E48FEF78FFF6420AA
:10241000FEF7BAFC012269464A48FEF7B1FF642084
:10242000FEF7B2FC03221EA94648FEF7A9FF64206E
:10243000FEF7AAFC9DF80000E1B2884231D1414884
:102440004030FEF7FBFB3F4864214030FEF7A4FB21
:102450003C484030FEF79BFA84B23A484030FEF7E1
:1024600063FC2046FDF785FF53EC182BFDF70FFFAB
:1024700053EC192BFDF70BFFFDF79BFFFDF786FFD4
:1024800041EC100B55A153EC102B1FA8FFF76EFA6F
:102490001A221FA92B48FEF773FF6420FEF774FC75
:1024A00072E728484030FEF7C9FB264864214030D7
:1024B000FEF772FB23484030FEF769FA84B22148E8
:1024C0004030FEF731FC2046FDF753FF53EC182B4C
:1024D000FDF7DDFE53EC192BFDF7D9FEFDF769FF83
:1024E00000E012E0FDF752FF41EC100B3BA153EC72
:1024F000102B1FA8FFF73AFA1A221FA91148FEF75E
:102500003FFF6420FEF740FCCBE73AA20EAB07CAC0
:1025100083E807000A220EA90A48FEF731FF64206B
:10252000FEF732FC4FF4005421462846FEF724FD06
:1025300042F21070FEF728FC21462846FEF71CFDEB
:1025400022E7000010000020001802406666666660
:1025500066660A40000000000000303F617265209E
:10256000796F752077616E74204F4E20414344206F
:102570006F72204C45445F313328414344202D2065
:10258000612C204C4544202D206C290D0A000000B0
:10259000610000000D0A000061726520796F7520EE
:1025A00077616E74206F6E65207772697465204163
:1025B00044432076616C7565206F7220696E666990
:1025C0006E697479204144432076616C75652829D1
:1025D00028312F32290D0900310000006164632089
:1025E00072616E6765202D20253034662020560DDF
:1025F0000A0000006F6E204C45445F31330000003C
:10260000000000000102030428260008000000204A
:1026100010000000B419000838260008100000203F
:1026200088040000C41900080024F4000100000020
:08263000100000000000000092
:04000005080001AD41
:00000001FF
